:100000000C942A000C943F000C943F000C943F0089
:100010000C943F000C943F000C943F000C943F0064
:100020000C943F000C943F000C943F000C943F0054
:100030000C943F000C943F000C943F000C943F0044
:100040000C943F000C943F000C943F000C943F0034
:100050000C943F0011241FBECFE5D8E0DEBFCDBF1A
:1000600010E0A0E6B0E0ECE9F9E002C005900D92E6
:10007000AA39B107D9F70E9445010C94CC040C941D
:1000800000009BB39F70282F207F922B9BBBD8989A
:10009000D99A35E03A95F1F70000D998EFE1F3E00D
:1000A0003197F1F700C000002BB32F70F0E18F9F64
:1000B000C0011124822B8BBBD99A35E03A95F1F718
:1000C0000000D9988FE39FE10197F1F700C000008D
:1000D00008959BB39F70282F207F922B9BBBD89AAB
:1000E000D99A35E03A95F1F70000D998EFE1F3E0BD
:1000F0003197F1F700C000002BB32F70F0E18F9F14
:10010000C0011124822B8BBBD99A35E03A95F1F7C7
:100110000000D9988FE39FE10197F1F700C000003C
:1001200008958FEF8ABB2FEF89EF90E02150804038
:100130009040E1F700C0000082E00E94410088E2A8
:100140000E9441008CE00E94410086E00E94410034
:1001500081E00E9441008FE39FE10197F1F700C029
:1001600000000895CF93DF93EC018881882331F05C
:1001700021960E94690089918111FBCFDF91CF9177
:100180000895CF93DF93EA01811108C0603178F4BC
:10019000862F8F7080680E94410009C0813039F439
:1001A000603128F4862F8F70806C0E944100CE0150
:1001B0000E94B200DF91CF91089511B880E280B91A
:1001C000089594EA96BF06B607FEFDCF91B1987FD9
:1001D000903171F483B984E886BF06B607FEFDCF7F
:1001E00081B1887F803431F0883431F083E0089524
:1001F00080E0089581E0089582E0089583B984E85D
:1002000086BF06B607FEFDCF81B1887F883221F018
:10021000803321F082E0089580E0089581E0089520
:1002200086B7846C86BF06B607FEFDCF83B10895FE
:1002300086B7846886BF06B607FEFDCF83B10895F2
:1002400086B7846986BF06B604FCFDCF08951F9368
:10025000CF93DF93182FC4EAD4E8C6BF06B607FED3
:10026000FDCF81B1887F8830C1F713B9D6BF06B6FC
:1002700007FEFDCF81B1887F883119F00E942001EF
:10028000ECCFDF91CF911F910895CF93DF93CDB73E
:10029000DEB72A970FB6F894DEBF0FBECDBF0E941F
:1002A00091000E94DD0040E650E060E080E00E94A6
:1002B000C1000F2EFFE7EF2EF0E0FF2EF02DCE0154
:1002C00001966C01A82EBD2C4EE650E060E081E066
:1002D0000E94C10080E20E9427018FE097E201970F
:1002E000F1F700C0000000E010E01F930F93FF92B1
:1002F000EF92DF92CF920E94E2014A2D5B2D6DE0DA
:1003000081E00E94C100802F0E94FE009FEF24E345
:100310008CE0915020408040E1F700C000000F5F6A
:100320001F4F0F900F900F900F900F900F900A306B
:100330001105D9F646E850E060E081E00E94C10076
:1003400081E20E94E1008FE097E20197F1F700C09F
:10035000000010E0193088F40E9410011F928F9362
:10036000FF92EF92DF92CF920E94E2010F900F90E6
:100370000F900F900F900F9010C00E9418011F92C5
:100380008F93FF92EF92DF92CF920E94E2010F9043
:100390000F900F900F900F900F904A2D5B2D6DE0F6
:1003A00081E00E94C1009FEF24E38CE09150204047
:1003B0008040E1F700C000001F5F1A3059F60E942C
:1003C000200182CFAEE0B0E0E8EEF1E00C94A304AF
:1003D0000D891E8986E08C831A8309838FEF9FE73E
:1003E0009E838D83AE01475E5F4F6F89788DCE010E
:1003F00001960E940402EF81F885E00FF11F108240
:100400002E96E4E00C94BF04ABE0B0E0EAE0F2E04A
:100410000C9495046C017B018A01FC011782168201
:10042000838181FFCCC1CE0101963C01F60193810D
:10043000F70193FD859193FF81917F01882309F452
:10044000BAC1853239F493FD859193FF81917F0183
:10045000853229F4B60190E00E94FB03E7CF912C8E
:10046000212C312CFFE1F315D8F08B3279F038F4E0
:10047000803279F08332A1F4232D20611DC08D32AA
:1004800061F0803369F4232D216016C0832D8260D2
:10049000382EE32DE4603E2E2AC0F32DF8601DC0F7
:1004A00037FC2DC020ED280F2A3040F08E32B9F4F1
:1004B00036FC81C1232D2064322E19C036FE06C0C1
:1004C0008AE0989E200D1124922E11C0EAE02E9E03
:1004D000200D1124222EF32DF0623F2E08C08C3601
:1004E00021F4832D8068382E02C0883641F4F7014C
:1004F00093FD859193FF81917F018111B3CF982F57
:100500009F7D9554933028F40C5F1F4F9FE3998390
:100510000DC0833631F0833771F0833509F059C04F
:1005200021C0F801808189830E5F1F4F8824839446
:10053000912C530113C02801F2E04F0E511CF80119
:10054000A080B18036FE03C0692D70E002C06FEF5D
:100550007FEFC5010E94F0034C018201F32DFF776C
:100560003F2E16C0280122E0420E511CF801A08047
:10057000B18036FE03C0692D70E002C06FEF7FEFDF
:10058000C5010E94E5034C01F32DF0683F2E820166
:1005900033FC1BC0822D90E088169906B0F4B6019A
:1005A00080E290E00E94FB032A94F4CFF50137FC2F
:1005B000859137FE81915F01B60190E00E94FB03B7
:1005C00021102A9421E0821A91088114910471F774
:1005D000E8C0843611F0893641F5F80137FE07C0CE
:1005E00060817181828193810C5F1F4F08C060819F
:1005F0007181072E000C880B990B0E5F1F4FF32D96
:10060000FF763F2E97FF09C0909580957095619574
:100610007F4F8F4F9F4FF0683F2E2AE030E0A301BD
:100620000E943704882E861845C0853731F4232D63
:100630002F7EB22E2AE030E025C0932D997FB92E6F
:100640008F36C1F018F4883579F0B5C0803719F0CD
:10065000883721F0B0C0E92FE061BE2EB4FE0DC096
:10066000FB2DF460BF2E09C034FE0AC0292F26607E
:10067000B22E06C028E030E005C020E130E002C024
:1006800020E132E0F801B7FE07C06081718182810C
:1006900093810C5F1F4F06C06081718180E090E004
:1006A0000E5F1F4FA3010E943704882E8618FB2D72
:1006B000FF773F2E36FE0DC0232D2E7FA22E8914EC
:1006C00058F434FE0BC032FC09C0832D8E7EA82E58
:1006D00005C0B82CA32C03C0B82C01C0B92CA4FEB3
:1006E0000FC0FE01E80DF11D8081803321F49A2DA9
:1006F000997EA92E09C0A2FE06C0B394B39404C08B
:100700008A2D867809F0B394A3FC11C0A0FE06C020
:10071000B21488F4280C922C9B180EC0B21460F40A
:10072000B60180E290E00E94FB03B394F7CFB214CD
:1007300018F42B1802C0982C212CA4FE10C0B6016E
:1007400080E390E00E94FB03A2FE17C0A1FC03C05F
:1007500088E790E002C088E590E0B6010CC08A2DE1
:10076000867859F0A1FE02C08BE201C080E2A7FCAE
:100770008DE2B60190E00E94FB03891438F4B601C3
:1007800080E390E00E94FB039A94F7CF8A94F301F0
:10079000E80DF11D8081B60190E00E94FB038110FD
:1007A000F5CF222009F442CEB60180E290E00E940B
:1007B000FB032A94F6CFF6018681978102C08FEF62
:1007C0009FEF2B96E2E10C94B104FC01059061507F
:1007D00070400110D8F7809590958E0F9F1F089557
:1007E000FC016150704001900110D8F78095909500
:1007F0008E0F9F1F08950F931F93CF93DF93FB01DD
:10080000238121FD03C08FEF9FEF2CC022FF16C074
:1008100046815781248135814217530744F4A081D2
:10082000B1819D012F5F3F4F318320838C932681BF
:1008300037812F5F3F4F3783268314C08B01EC0134
:10084000FB010084F185E02D0995892BE1F6D801A3
:1008500016968D919C911797019617969C938E935F
:100860001697CE01DF91CF911F910F910895FA0154
:10087000AA27283051F1203181F1E8946F936E7FDF
:100880006E5F7F4F8F4F9F4FAF4FB1E03ED0B4E0D0
:100890003CD0670F781F891F9A1FA11D680F791F11
:1008A0008A1F911DA11D6A0F711D811D911DA11D22
:1008B00020D009F468943F912AE0269F1124301932
:1008C000305D3193DEF6CF010895462F4770405DCD
:1008D0004193B3E00FD0C9F7F6CF462F4F70405D7C
:1008E0004A3318F0495D31FD4052419302D0A9F7D7
:1008F000EACFB4E0A6959795879577956795BA95D1
:10090000C9F700976105710508959B01AC010A2E96
:1009100006945795479537952795BA95C9F7620F6D
:10092000731F841F951FA01D08952F923F924F9211
:100930005F926F927F928F929F92AF92BF92CF926F
:10094000DF92EF92FF920F931F93CF93DF93CDB778
:10095000DEB7CA1BDB0B0FB6F894DEBF0FBECDBFF0
:1009600009942A88398848885F846E847D848C84C1
:100970009B84AA84B984C884DF80EE80FD800C81CA
:100980001B81AA81B981CE0FD11D0FB6F894DEBFAD
:0C0990000FBECDBFED010895F894FFCF1D
:10099C004D617374657220446576696365005365B7
:1009AC006E64696E67203A202020202020200025CC
:1009BC00642020202000526563656976696E67208B
:0A09CC003A20202020202020000007
:00000001FF
