:1000000012C02CC02BC02AC029C028C027C026C0BF
:1000100025C024C023C0BDC021C020C01FC01EC039
:100020001DC01CC01BC011241FBECFE5D4E0DEBF25
:10003000CDBF10E0A0E6B0E0E8E3F2E002C005903A
:100040000D92A836B107D9F720E0A8E6B0E001C0CC
:100050001D92AC36B207E1F790D0ECC0D1CF95B38A
:100060009F70282F207F922B95BBA898A99A35E0E6
:100070003A95F1F70000A998EFE1F3E03197F1F735
:1000800000C0000025B32F70F0E18F9FC001112444
:10009000822B85BBA99A35E03A95F1F70000A99823
:1000A0008FE39FE10197F1F700C00000089595B339
:1000B0009F70282F207F922B95BBA89AA99A35E094
:1000C0003A95F1F70000A998EFE1F3E03197F1F7E5
:1000D00000C0000025B32F70F0E18F9FC0011124F4
:1000E000822B85BBA99A35E03A95F1F70000A998D3
:1000F0008FE39FE10197F1F700C0000008958FEFB3
:1001000084BB2FEF89EF90E0215080409040E1F7D1
:1001100000C0000082E0A3DF88E2A1DF8CE09FDF67
:1001200086E09DDF81E09BDF8FE39FE10197F1F7A0
:1001300000C000000895CF93DF93EC0188818823ED
:1001400029F02196B4DF89918111FCCFDF91CF9105
:10015000089581E084DF8FE39FE10197F1F700C00C
:10016000000080E87CDF089586E689B98AB1886955
:100170008AB980B5866080BD0895C1DFF5DFE9DF0B
:1001800080E690E0D8DF7894FFCF5F9BFECF8CB104
:1001900008951F920F920FB60F9211242F933F9341
:1001A0004F935F936F937F938F939F93AF93BF937F
:1001B000EF93FF938091680081110CC0E6DF8432D9
:1001C00031F4809168008F5F8093680003C01092C3
:1001D00068001FC080916800813041F4D6DF8093B1
:1001E0006B00809168008F5F809368008091680049
:1001F000823079F4CADF8093690090916B00892B7B
:100200008F3F29F480EC2BDF80916B0050DF109240
:100210006800FF91EF91BF91AF919F918F917F9176
:100220006F915F914F913F912F910F900FBE0F9063
:080230001F901895F894FFCF10
:08023800446174615F494E004E
:00000001FF
