S0100000546573744C4344342E737265636D
S11300000C942A000C943F000C943F000C943F0085
S11300100C943F000C943F000C943F000C943F0060
S11300200C943F000C943F000C943F000C943F0050
S11300300C943F000C943F000C943F000C943F0040
S11300400C943F000C943F000C943F000C943F0030
S11300500C943F0011241FBECFE5D8E0DEBFCDBF16
S113006010E0A0E6B0E0EEECF1E002C005900D92E5
S1130070A237B107D9F70E94CE000C94E5000C9486
S1130080000095B39F70282F207F922B95BBA898D2
S1130090A99A35E03A95F1F70000A998EFE1F3E069
S11300A03197F1F700C0000025B32F70F0E18F9F66
S11300B0C0011124822B85BBA99A35E03A95F1F74A
S11300C00000A9988FE39FE10197F1F700C00000B9
S11300D0089595B39F70282F207F922B95BBA89AE3
S11300E0A99A35E03A95F1F70000A998EFE1F3E019
S11300F03197F1F700C0000025B32F70F0E18F9F16
S1130100C0011124822B85BBA99A35E03A95F1F7F9
S11301100000A9988FE39FE10197F1F700C0000068
S11301200895CF93DF93EC018881882331F02196E1
S11301300E94690089918111FBCFDF91CF910895CD
S11301408FEF84BB2FEF89EF90E0215080409040E7
S1130150E1F700C0000082E00E94410088E20E94B2
S113016041008CE00E94410086E00E94410081E051
S11301700E9441008FE39FE10197F1F700C0000066
S1130180089581E00E9441008FE39FE10197F1F718
S113019000C0000080E80E94410008958A988B986E
S11301A0929A939A0E94A0000E94C10080E80E9443
S11301B0410080E690E00E94910080EC0E944100A2
S11101C08FE690E00E949100FFCFF894FFCFED
S11301CE546F6E672073616E207068616D3A0030F3
S10501DE00001B
S9030000FC
