:100000000C942A000C9434000C9434000C943400AA
:100010000C9434000C9434000C9434000C94340090
:100020000C9434000C9434000C9434000C94340080
:100030000C9434000C9434000C9434000C94340070
:100040000C9434000C9434000C9434000C94340060
:100050000C94340011241FBECFE5D8E0DEBFCDBF25
:100060000E9468000C949C000C9400002AB1286146
:100070002AB920B5266820BDDC01CB01880F991F65
:10008000AA1FBB1F880F991FAA1FBB1F9C01AD0190
:10009000220F331F441F551F220F331F441F551FAC
:1000A00060E072E18AE790E00E947A008FEF820FB1
:1000B00089B9DA01C9010197A109B109892F9A2FDC
:1000C000AB2FBB2780BD08955F9BFECF8CB10895F9
:1000D000B89AC09860E875E280E090E00E9436002F
:1000E0000E946400803311F4C09AFACF8133C1F7C3
:1000F000C098F6CFA1E21A2EAA1BBB1BFD010DC0B2
:10010000AA1FBB1FEE1FFF1FA217B307E407F507C7
:1001100020F0A21BB30BE40BF50B661F771F881FA3
:10012000991F1A9469F760957095809590959B0139
:0C013000AC01BD01CF010895F894FFCF91
:00000001FF
