S01100004C45445F375F7365672E737265630A
S11300000C942A000C943F000C943F000C943F0085
S11300100C943F000C943F000C943F000C943F0060
S11300200C943F000C943F000C943F000C943F0050
S11300300C943F000C943F000C943F000C943F0040
S11300400C943F000C943F000C943F000C943F0030
S11300500C943F0011241FBECFE5D8E0DEBFCDBF16
S113006010E0A0E6B0E0EAE2F1E002C005900D92F3
S1130070AA36B107D9F70E9460000C9493000C943F
S11300800000A9986AE070E00E946B00FB01E05A4E
S1130090FF4F208122BBA89AEFE0F7E23197F1F7F6
S11300A000C00000A898FC01E05AFF4F808182BB89
S11300B0A99A8FE097E20197F1F700C00000089534
S11300C084B3836084BB8FEF81BB82BB8BE190E000
S11300D00E944100FBCF97FB072E16F4009407D033
S11300E077FD09D00E947F0007FC05D03EF490956F
S11300F081959F4F0895709561957F4F0895AA1B30
S1130100BB1B51E107C0AA1FBB1FA617B70710F0FE
S1130110A61BB70B881F991F5A95A9F78095909530
S10D0120BC01CD010895F894FFCF4F
S10D012AC0F9A4B0999282F8809005
S9030000FC
