S013000049525F52656365697665722E73726563E2
S11300000C942A000C943C000C943C000C943C008E
S11300100C943C000C943C000C943C000C943C006C
S11300200C943C000C943C000C943C000C943C005C
S11300300C943C000C94CB000C943C000C943C00BD
S11300400C943C000C943C000C943C000C943C003C
S11300500C943C0011241FBECFE5D8E0DEBFCDBF19
S113006020E0A0E6B0E001C01D92AE36B207E1F791
S11300700E9420010C947E010C94000095B39F70A3
S1130080282F207F922B95BBA898A99A35E03A9502
S1130090F1F70000A998EFE1F3E03197F1F700C020
S11300A0000025B32F70F0E18F9FC0011124822B33
S11300B085BBA99A35E03A95F1F70000A9988FE33A
S11300C09FE10197F1F700C00000089595B39F7078
S11300D0282F207F922B95BBA89AA99A35E03A95B0
S11300E0F1F70000A998EFE1F3E03197F1F700C0D0
S11300F0000025B32F70F0E18F9FC0011124822BE3
S113010085BBA99A35E03A95F1F70000A9988FE3E9
S11301109FE10197F1F700C0000008958FEF84BBC1
S11301202FEF89EF90E0215080409040E1F700C02C
S1130130000082E00E943E0088E20E943E008CE0C3
S11301400E943E0086E00E943E0081E00E943E0044
S11301508FE39FE10197F1F700C000000895CF936A
S1130160DF93EC018881882331F021960E94660098
S113017089918111FBCFDF91CF91089581E00E9495
S11301803E008FE39FE10197F1F700C0000080E893
S11301900E943E0008951F920F920FB60F921124F1
S11301A02F933F934F935F936F937F938F939F937B
S11301B0AF93BF93EF93FF938091600081110DC0C3
S11301C00E945801849731F4809160008F5F80937E
S11301D0600003C01092600022C0809160008130F2
S11301E049F40E94580180936D00809160008F5FF4
S11301F08093600080916000823089F40E945801ED
S113020080936B0090916D00892B8F3F31F4109295
S1130210610081E690E00E94AF0010926000FF91BF
S1130220EF91BF91AF919F918F917F916F915F916A
S11302304F913F912F910F900FBE0F901F901895E3
S11302400E948E0080EB94E00E942A010E94BE006E
S11302507894FFCF2AB128612AB920B5266820BD39
S1130260DC01CB01880F991FAA1FBB1F880F991FA0
S1130270AA1FBB1F9C01AD01220F331F441F551F32
S1130280220F331F441F551F60E074E284EF90E097
S11302900E945C018FEF820F89B9DA01C9010197CD
S11302A0A109B109892F9A2FAB2FBB2780BD0895CF
S11302B05F9BFECF8CB10895A1E21A2EAA1BBB1B33
S11302C0FD010DC0AA1FBB1FEE1FFF1FA217B3071E
S11302D0E407F50720F0A21BB30BE40BF50B661F34
S11302E0771F881F991F1A9469F7609570958095F8
S11302F090959B01AC01BD01CF010895F894FFCF07
S9030000FC
