:100000000C942A000C9434000C9434000C943400AA
:100010000C9434000C9434000C9434000C94340090
:100020000C9434000C9434000C9434000C94340080
:100030000C9434000C9434000C9434000C94340070
:100040000C9434000C9434000C9434000C94340060
:100050000C94340011241FBECFE5D8E0DEBFCDBF25
:100060000E9496000C94B7000C94000095B39F700A
:1000700095BB95B3807F982B95BB089595B39F70E2
:1000800095BB95B38295807F982B95BB0895A99ACF
:10009000A9980895CF93C82FA8980E9436000E946F
:1000A00047008C2F0E943E000E944700A998A99A01
:1000B0008FE39FE10197F1F700C00000CF91089511
:1000C00085B38C7F85BB80E30E944A008FE19EE46C
:1000D0000197F1F700C0000080E30E944A008FE919
:1000E0009FE00197F1F700C0000080E30E944A0002
:1000F00088E30E944A0081E00E944A008CE00E944E
:100100004A000895CF93C82FA89A0E9436000E94F3
:1001100047008C2F0E943E000E9447008FE99FE01D
:100120000197F1F700C00000CF91089581B38FEFE0
:1001300081BB94B384BBD99A0E94600081E30E9482
:1001400036002FEF87EA91E6215080409040E1F79A
:1001500000C0000081E30E943E00C0E0C999FECFCC
:10016000CF5F8C2F0E948200C99BFECFF7CFF894FF
:02017000FFCFBF
:00000001FF
