:1000000009C017C015C014C013C012C0F0C010C082
:100010000FC00EC011241FBECFE9CDBF20E0A0E667
:10002000B0E001C01D92AF36B207E1F715D17CC137
:10003000E7CF1F920F920FB60F9211242F933F9389
:100040004F935F936F937F938F939F93AF93BF93E0
:1000500040916B0050916C0010926C0010926B00FC
:1000600086B3827090E020916600213079F030F004
:10007000223009F4A7C0233029F1AAC018161906A6
:100080000CF4A6C081E080936600A2C01816190681
:10009000ACF4405952404F39510560F483E08093ED
:1000A00066001092650088EE9CE190936E0080934C
:1000B0006D008EC082E0809366008AC082E08093EB
:1000C000660086C020916500213049F138F0223069
:1000D00009F464C0233009F45AC070C01816190618
:1000E0000CF46CC0CA018B5491404D9770F481E0C0
:1000F000809365001092640010926000109261007D
:10010000109262001092630063C04C5951094D3146
:10011000510508F053C082E08093650059C02091DA
:100120006400203208F04AC0181619060CF450C0BA
:1001300031E0320F3093640081E090E0A0E0B0E065
:100140004A35510518F480E090E0DC0104C0880FC6
:10015000991FAA1FBB1F2A95D2F7409160005091AA
:1001600061006091620070916300842B952BA62B37
:10017000B72B8093600090936100A0936200B093CE
:100180006300303229F583E08093650021C01816A2
:100190001906A4F482E0809365001AC08091600083
:1001A00090916100A0916200B0916300809367001C
:1001B00090936800A0936900B0936A0082E08093F6
:1001C000660006C01092660010926E0010926D00DC
:1001D000BF91AF919F918F917F916F915F914F915F
:1001E0003F912F910F900FBE0F901F9018951F9267
:1001F0000F920FB60F9211242F933F938F939F93DB
:1002000080916B0090916C009C012F5F3F4F309369
:100210006C0020936B008131974210F010926600C1
:1002200080916D0090916E00892B69F080916D0036
:1002300090916E00019790936E0080936D00892BD2
:1002400011F4109266009F918F913F912F910F9022
:100250000FBE0F901F90189587B38D6187BBB9981B
:10026000C1988FB582608FBD83B7816083BF89B726
:10027000846089BF8AE786BF8BB780648BBF85B7F0
:100280008D7F85BF85B7816085BF7894F0E1E8E018
:1002900034E021E08091670090916800A0916900AE
:1002A000B0916A00892B8A2B8B2BA1F340916700B8
:1002B000509168006091690070916A0080916700B8
:1002C00090916800A0916900B0916A001092670057
:1002D000109268001092690010926A004130D1F6C5
:1002E000CD01AA27BB278430D9F028F4882361F0F8
:1002F000813031F0CFCF863079F0873049F0CACFE6
:1003000088B3827E88BBC6CF88B3822788BBC2CF22
:1003100088B3832788BBBECF88B38E2788BBBACF6C
:0C03200088B38F2788BBB6CFF894FFCFBE
:00000001FF
