:100000000C942A000C946A000C9434000C94340074
:100010000C9434000C9434000C9434000C94340090
:100020000C9434000C9434000C9434000C94340080
:100030000C9434000C9434000C9434000C94340070
:100040000C9434000C9434000C9434000C94340060
:100050000C94340011241FBECFE5D8E0DEBFCDBF25
:100060000E9436000C9475000C94000081B38161ED
:1000700081BB8A9882B38E6082BB909A85B78F7855
:1000800085BF85B7826085BF8BB780648BBF78944E
:1000900090E1819911C0EFE3FCE93197F1F700C0DD
:1000A0000000819909C09098949885B7806885BFB1
:1000B000889585B78F7785BF8399EBCFEFE3FCE910
:1000C0003197F1F700C000008399E3CF82B389270D
:1000D00082BBDFCF1F920F920FB60F921124909A1E
:0E00E0000F900FBE0F901F901895F894FFCF51
:00000001FF
