S00B00004144432E7372656351
S11300000C942A000C943F000C943F000C943F0085
S11300100C943F000C943F000C943F000C943F0060
S11300200C943F000C943F000C943F000C943F0050
S11300300C943F000C943F000C943F000C943F0040
S11300400C943F000C943F000C943F000C943F0030
S11300500C943F0011241FBECFE5D8E0DEBFCDBF16
S113006010E0A0E6B0E0EAE6F2E002C005900D92EE
S1130070AE36B107D9F70E94DA000C9433010C9420
S1130080000098B39F70282F207F922B98BBC098B4
S1130090C19A35E03A95F1F70000C198EFE1F3E039
S11300A03197F1F700C0000028B32F70F0E18F9F63
S11300B0C0011124822B88BBC19A35E03A95F1F72F
S11300C00000C1988FE39FE10197F1F700C00000A1
S11300D0089598B39F70282F207F922B98BBC09AC5
S11300E0C19A35E03A95F1F70000C198EFE1F3E0E9
S11300F03197F1F700C0000028B32F70F0E18F9F13
S1130100C0011124822B88BBC19A35E03A95F1F7DE
S11301100000C1988FE39FE10197F1F700C0000050
S113012008958FEF87BB2FEF89EF90E02150804037
S11301309040E1F700C0000082E00E94410088E2A4
S11301400E9441008CE00E94410086E00E94410030
S113015081E00E9441008FE39FE10197F1F700C025
S113016000000895CF93DF93EC018881882331F058
S113017021960E94690089918111FBCFDF91CF9173
S113018008951ABA86B1876886B93E9A089597B1D8
S11301908F70982B97B9369A349BFECF85E38A9556
S11301A0F1F7000024B185B190E0982F8827820FE1
S11301B0911D0895CF93DF9300D000D01F92CDB747
S11301C0DEB70E94C1000E94910080E690E00E9488
S11301D0B20084EC0E94410080E00E94C7004AE023
S11301E0BE016F5F7F4F0E94FE00CE0101960E9408
S11301F0B2008AE690E00E94B200EBCFBB274A30FF
S113020031F4992322F4BDE2909581959F4F0C948B
S11302100A01BB27FB015527AA27880F991FAA1F8C
S1130220A41710F0A41B83955051B9F7A05DAA330D
S113023008F0A95DA193009779F7B111B1931192D8
S1130240CB010C942301DC01FC01672F719177230E
S1130250E1F7329704C07C916D9370836291AE177D
S10D0260BF07C8F30895F894FFCF18
S111026A4144432076616C756500202000003D
S9030000FC
