:100000000C9441000C945E000C945E000C945E0015
:100010000C945E000C945E000C945E000C945E00E8
:100020000C945E000C945E000C945E000C945E00D8
:100030000C945E000C945E000C945E000C945E00C8
:100040000C945E000C945E000C945E000C945E00B8
:100050000C945E008C02A601A601A601A601A601D1
:10006000A6017902A601A601A601A601A6016602C3
:10007000BB01CE01E101F40107021A022D02400288
:10008000530211241FBECFE5D8E0DEBFCDBF10E084
:10009000A0E6B0E0E8E6F5E002C005900D92AC37CE
:1000A000B107D9F720E0ACE7B0E001C01D92AE3750
:1000B000B207E1F70E949A010C94B2020C9400007E
:1000C00030EF2FEF9FEE6FED5FEB4FE73ABB2BBBAF
:1000D0008BB38F708BBB000089B38F7080937C00D3
:1000E0008F30B1F7E7E8F3E13197F1F700C0000096
:1000F00089B38F7080937C008F30A1F3EFE0F7E23B
:100100003197F1F700C0000089B38F7080937C00B5
:100110008F3041F39BBB000089B38F7080937C00CC
:100120008F3019F010927D0024C06BBB000089B3A2
:100130008F7080937C008F3021F081E080937D0070
:1001400018C05BBB000089B38F7080937C008F3038
:1001500021F082E080937D000CC04BBB000089B38E
:100160008F7080937C008F3009F4B0CF83E0809350
:100170007D0080917C008E3059F4E0917D00F0E0AC
:10018000EE0FFF1FEE0FFF1FE05AFF4F8081089513
:100190008D3059F4E0917D00F0E0EE0FFF1FEE0F7F
:1001A000FF1FE05AFF4F818108958B3059F4E09191
:1001B0007D00F0E0EE0FFF1FEE0FFF1FE05AFF4F34
:1001C00082810895E0917D00F0E0EE0FFF1FEE0FB9
:1001D000FF1FE05AFF4F8381089595B39F70282F2A
:1001E000207F922B95BBA898A99A35E03A95F1F714
:1001F0000000A998EFE1F3E03197F1F700C00000AB
:1002000025B32F70F0E18F9FC0011124822B85BB95
:10021000A99A35E03A95F1F70000A9988FE39FE19C
:100220000197F1F700C00000089595B39F70282F43
:10023000207F922B95BBA89AA99A35E03A95F1F7C1
:100240000000A998EFE1F3E03197F1F700C000005A
:1002500025B32F70F0E18F9FC0011124822B85BB45
:10026000A99A35E03A95F1F70000A9988FE39FE14C
:100270000197F1F700C0000008958FEF84BB2FEFC6
:1002800089EF90E0215080409040E1F700C00000ED
:1002900082E00E94ED0088E20E94ED008CE00E9466
:1002A000ED0086E00E94ED0081E00E94ED008FE30A
:1002B0009FE10197F1F700C000000895CF93DF930D
:1002C000EC018881882331F021960E9415018991E3
:1002D0008111FBCFDF91CF910895CF93DF93EA0196
:1002E000811108C0603178F4862F8F7080680E9479
:1002F000ED0009C0813039F4603128F4862F8F7009
:10030000806C0E94ED00CE010E945E01DF91CF91D2
:1003100008958FEF81BB8FB5826A8FBD8EB58961DD
:100320008EBD86EA91E097BD86BD83ED90E09BBDD2
:100330008ABD08950E949F020E9489010E943D018A
:1003400040E750E060E080E00E946D010E946000A4
:10035000C82F80EC0E94ED000E9460000E941501F1
:100360008C2F90E0FC01B397E731F10578F7E65D5B
:10037000FF4F0C94AC0284E290E00E94A80281E35B
:1003800090E00E94A8028EEC90E00E94A8028FE309
:100390009CE90197F1F700C00000D8CF84E290E01B
:1003A0000E94A80282E390E00E94A8028DEC90E0F7
:1003B0000E94A8028FE39CE90197F1F700C00000BA
:1003C000C5CF84E290E00E94A80283E390E00E94FF
:1003D000A8028CEC90E00E94A8028FE39CE90197B0
:1003E000F1F700C00000B2CF84E290E00E94A802C2
:1003F00084E390E00E94A8028BEC90E00E94A802A7
:100400008FE39CE90197F1F700C000009FCF84E2E1
:1004100090E00E94A80285E390E00E94A8028AEC86
:1004200090E00E94A8028FE39CE90197F1F700C0D9
:1004300000008CCF84E290E00E94A80286E390E066
:100440000E94A80289EC90E00E94A8028FE39CE938
:100450000197F1F700C0000079CF84E290E00E949C
:10046000A80287E390E00E94A80288EC90E00E9436
:10047000A8028FE39CE90197F1F700C0000066CF66
:1004800084E290E00E94A80288E390E00E94A80223
:1004900087EC90E00E94A8028FE39CE90197F1F7B6
:1004A00000C0000053CF84E290E00E94A80289E3DC
:1004B00090E00E94A80286EC90E00E94A8028FE3E0
:1004C0009CE90197F1F700C0000040CF84E290E082
:1004D0000E94A80280E390E00E94A8028FEC90E0C6
:1004E0000E94A8028FE39CE90197F1F700C0000089
:1004F0002DCF84E290E00E94A8028AE290E00E9460
:10050000A80285ED90E00E94A8028FE39CE9019784
:10051000F1F700C000001ACF84E290E00E94A80228
:1005200083E290E00E94A8028CED90E00E94A80275
:100530008FE39CE90197F1F700C0000007CF83E348
:1005400089B98AB188698AB980B5866080BD089505
:100550005D9BFECF8CB90895EE0FFF1F0590F491BF
:08056000E02D0994F894FFCF8F
:100568003738392F3435362A3132332D20303D2B68
:0C05780050726573732061206B65790080
:00000001FF
