:100000000C942A000C943C000C943C000C943C0092
:100010000C943C000C943C000C943C000C943C0070
:100020000C943C000C943C000C943C000C943C0060
:100030000C943C000C943C000C943C000C943C0050
:100040000C943C000C943C000C943C000C943C0040
:100050000C943C0011241FBECFE5D8E0DEBFCDBF1D
:1000600020E0A0E6B0E001C01D92A836B207E1F79B
:100070000E9450010C94DC010C94000082E080BDD1
:1000800085EC89B98AE880BD88E18AB908955D9BCD
:10009000FECF8CB908958A3020F4805D0E9447001D
:1000A0000895895C0E9447000895CF93DF93EC0187
:1000B00080E30E94470088E70E9447008D2F8295C9
:1000C0008F700E944B008D2F8F700E944B00CE01CD
:1000D000929582958F7089279F7089278F700E94D3
:1000E0004B008C2F8F700E944B008DE00E944700C8
:1000F0008AE00E944700DF91CF910895B99A8FEF6F
:1001000085BB1DBC1CBC8CB59DB580349C49D8F307
:10011000B99815BA089582E08EBD929AC09A8FEF71
:1001200084BB0E943E0008954CE080E090E0E1E056
:1001300050E0829BFECF8299FECF6CB57DB51DBC91
:100140001CBC9C01220F331F8E2F952F6C367B40D9
:1001500010F480E090E0822B932B415051F72091D6
:100160006500309166008217930769F4209167005B
:10017000253031F02F5F2093670080E090E00895F4
:10018000109267000895909366008093650008952B
:100190008CB59DB5893B9841D8F31DBC1CBC50B3B0
:1001A00054708CB59DB5813C9D40D8F31DBC1CBCE2
:1001B0004CE020E030E0220F331F829921608CB5A3
:1001C0009DB5813C9D40D8F31DBC1CBC415099F7A6
:1001D00080916300909164002817390799F4809109
:1001E0006200581312C0809167008F5F853029F03C
:1001F0008093670080E090E0089510926700822F5E
:10020000932F0895809162005813109267003093E5
:1002100064002093630050936200822F932F08950F
:100220008299FECF8CB59DB51DBC1CBC843D90420F
:1002300040F01092670080E060E070E051E0E0E0A4
:1002400011C0809167008F5F853029F0809367002F
:1002500080E090E008951092670080916000909196
:1002600061000895829BFECF8299FECF2CB53DB5EB
:100270001DBC1CBC452F253E3C4008F44E2F982F3A
:100280009F7E983018F4660F771F642B8F5F803243
:1002900049F77093610060936000862F972F08954F
:1002A0000E948B0080E090E00E94B4016C01C0E0ED
:1002B000D0E0FF24FA9415BA2FEF49E688E12150E7
:1002C00040408040E1F700C00000F5BA9FEF29E60A
:1002D00048E1915020404040E1F700C00000829981
:1002E000FECF1DBC1CBC829BFECF8CB59DB51DBC3A
:1002F0001CBC9C0123563644203A324030F4CE01D7
:100300000E941001EC011EE416C09C0121543640ED
:100310002F31334030F4CE010E94C800EC0112E5C9
:100320000AC0815A9F408134964028F6CE010E942F
:100330009400EC0113E5209709F4BDCFB09907C0F4
:10034000BE0180E090E00E94BA016E01B4CFCC16ED
:10035000DD0619F4C6010E947E00812F0E9447002D
:10036000CE010E945500A7CFA8E1B0E042E050E0E6
:100370000C94C1010E94CF01272F0C94D001DC0105
:10038000CB01FC01E199FECF06C0FFBBEEBBE09ABA
:1003900031960DB20D9241505040B8F70895262F76
:1003A000E199FECF9FBB8EBB2DBB0FB6F894E29AAE
:0C03B000E19A0FBE01960895F894FFCF6B
:00000001FF
