S00D000031365F30362E73726563EB
S11300000C9441000C945E000C945E000C945E0011
S11300100C945E000C945E000C945E000C945E00E4
S11300200C945E000C945E000C945E000C945E00D4
S11300300C945E000C945E000C945E000C945E00C4
S11300400C945E000C945E000C945E000C945E00B4
S11300500C945E00150227022702270227022702BA
S11300602702020227022702270227022702EF01A2
S1130070440157016A017D019001A301B601C90140
S1130080DC0111241FBECFE5D8E0DEBFCDBF10E0F8
S1130090A0E6B0E0E6EBF4E002C005900D92A037D4
S11300A0B107D9F720E0A0E7B0E001C01D92A23764
S11300B0B207E1F70E943B020C9459020C94000031
S11300C030EF2FEF9FEE6FED5FEB4FE73ABB2BBBAB
S11300D08BB38F708BBB000089B38F7080937000DB
S11300E08F30B1F7E7E8F3E13197F1F700C0000092
S11300F089B38F70809370008F30A1F3EFE0F7E243
S11301003197F1F700C0000089B38F7080937000BD
S11301108F3041F39BBB000089B38F7080937000D4
S11301208F3019F01092710024C06BBB000089B3AA
S11301308F70809370008F3021F081E08093710084
S113014018C05BBB000089B38F70809370008F3040
S113015021F082E0809371000CC04BBB000089B396
S11301608F70809370008F3009F4B0CF83E0809358
S11301707100809170008E3059F4E0917100F0E0CC
S1130180EE0FFF1FEE0FFF1FE05AFF4F808108950F
S11301908D3059F4E0917100F0E0EE0FFF1FEE0F87
S11301A0FF1FE05AFF4F818108958B3059F4E0918D
S11301B07100F0E0EE0FFF1FEE0FFF1FE05AFF4F3C
S11301C082810895E0917100F0E0EE0FFF1FEE0FC1
S11301D0FF1FE05AFF4F8381089595B39F70282F26
S11301E0207F922B95BBA898A99A35E03A95F1F710
S11301F00000A998EFE1F3E03197F1F700C00000A7
S113020025B32F70F0E18F9FC0011124822B85BB91
S1130210A99A35E03A95F1F70000A9988FE39FE198
S11302200197F1F700C0000008958FEF84BB2FEF12
S113023089EF90E0215080409040E1F700C0000039
S113024082E00E94ED0088E20E94ED008CE00E94B2
S1130250ED0086E00E94ED0081E00E94ED008FE356
S11302609FE10197F1F700C000000895CF93C82FD4
S1130270C09590E0FC01B397E731F10508F0E7C0C1
S1130280E65DFF4F0C94530284E290E00E944F021B
S113029081E390E00E944F028C2F90E00E944F0275
S11302A08FE39CE90197F1F700C00000D0C084E21D
S11302B090E00E944F0282E390E00E944F028C2F54
S11302C090E00E944F028FE39CE90197F1F700C090
S11302D00000BDC084E290E00E944F0283E390E0FE
S11302E00E944F028C2F90E00E944F028FE39CE902
S11302F00197F1F700C00000AAC084E290E00E94D8
S11303004F0284E390E00E944F028C2F90E00E9401
S11303104F028FE39CE90197F1F700C0000097C0FA
S113032084E290E00E944F0285E390E00E944F0235
S11303308C2F90E00E944F028FE39CE90197F1F724
S113034000C0000084C084E290E00E944F0286E373
S113035090E00E944F028C2F90E00E944F028FE3A6
S11303609CE90197F1F700C0000071C084E290E0BD
S11303700E944F0287E390E00E944F028C2F90E08E
S11303800E944F028FE39CE90197F1F700C000003F
S11303905EC084E290E00E944F0288E390E00E94F5
S11303A04F028C2F90E00E944F028FE39CE901974B
S11303B0F1F700C000004BC084E290E00E944F02BD
S11303C089E390E00E944F028C2F90E00E944F023C
S11303D08FE39CE90197F1F700C0000038C084E284
S11303E090E00E944F0280E390E00E944F028C2F25
S11303F090E00E944F028FE39CE90197F1F700C05F
S1130400000025C084E290E00E944F028AE290E05E
S11304100E944F028C2F90E00E944F028FE39CE9D0
S11304200197F1F700C0000012C084E290E00E943E
S11304304F0283E290E00E944F028C2F90E00E94D2
S11304404F028FE39CE90197F1F700C00000CF91C0
S1130450089581B38FEF81BB8FB5826A8FBD8EB54E
S113046089618EBD86EA91E097BD86BD83ED90E0FB
S11304709BBD8ABD08950E9429020E9446020E94E3
S113048015010E9460000E943601FBCF86E689B9FF
S11304908AB188698AB980B5866080BD08955D9BFC
S11304A0FECF8CB90895EE0FFF1F0590F491E02D57
S10904B00994F894FFCF4B
S11304B63738392F3435362A3132332D20303D2B17
S9030000FC
