S0110000546573745F4C4344382E7372656309
S11300000C942A000C943F000C943F000C943F0085
S11300100C943F000C943F000C943F000C943F0060
S11300200C943F000C943F000C943F000C943F0050
S11300300C943F000C943F000C943F000C943F0040
S11300400C943F000C943F000C943F000C943F0030
S11300500C943F0011241FBECFE5D8E0DEBFCDBF16
S113006010E0A0E6B0E0E8E3F1E002C005900D92F4
S1130070A637B107D9F70E948C000C949A000C940F
S1130080000082BBA898A998AA9A85E08A95F1F7FE
S11300900000AA988FED9EE20197F1F700C00000DE
S11300A008958FEF84BB81BB2FEF89EF90E021503F
S11300B080409040E1F700C0000088E30E944100C6
S11300C08CE00E94410086E00E94410081E00E9491
S11300D0410080E80E944100089582BBA89AA99833
S11300E0AA9A85E08A95F1F70000AA988FE99FE023
S11300F00197F1F700C000000895CF93DF93EC015E
S11301008881882331F021960E946D0089918111A4
S1130110FBCFDF91CF9108950E94510080E690E0DB
S11301200E947D0080EC0E9441008DE690E00E94D8
S10B01307D00FFCFF894FFCF1E
S113013848656C6C6F20576F726C642100476F6F51
S109014864627965000009
S9030000FC
