S0110000546573745F4C4344342E737265630D
S11300000C942A000C943F000C943F000C943F0085
S11300100C943F000C943F000C943F000C943F0060
S11300200C943F000C943F000C943F000C943F0050
S11300300C943F000C943F000C943F000C943F0040
S11300400C943F000C943F000C943F000C943F0030
S11300500C943F0011241FBECFE5D8E0DEBFCDBF16
S113006010E0A0E6B0E0EAE6F2E002C005900D92EE
S1130070A637B107D9F70E94DA000C9433010C9427
S113008000001ABA86B1876886B93E9A089597B176
S11300908F70982B97B9369A349BFECF85E38A9557
S11300A0F1F7000024B185B190E0982F8827820FE2
S11300B0911D089598B39F70282F207F922B98BB91
S11300C0C098C19A35E03A95F1F70000C198EFE184
S11300D0F3E03197F1F700C0000028B32F70F0E18E
S11300E08F9FC0011124822B88BBC19A35E03A95B9
S11300F0F1F70000C1988FE39FE10197F1F700C089
S11301000000089598B39F70282F207F922B98BBEE
S1130110C09AC19A35E03A95F1F70000C198EFE131
S1130120F3E03197F1F700C0000028B32F70F0E13D
S11301308F9FC0011124822B88BBC19A35E03A9568
S1130140F1F70000C1988FE39FE10197F1F700C038
S1130150000008958FEF87BB2FEF89EF90E02150C7
S113016080409040E1F700C0000082E00E945A0005
S113017088E20E945A008CE00E945A0086E00E94A5
S11301805A0081E00E945A008FE39FE10197F1F742
S113019000C000000895CF93DF93EC018881882389
S11301A031F021960E94820089918111FBCFDF9169
S11301B0CF910895CF93DF9300D000D01F92CDB795
S11301C0DEB70E94AA000E94410080E690E00E94EF
S11301D0CB0080EC0E945A008DE690E00E94CB0098
S11301E080E00E9447004AE0BE016F5F7F4F0E949B
S11301F0FE00CE0101960E94CB00F2CFBB274A300D
S113020031F4992322F4BDE2909581959F4F0C948B
S11302100A01BB27FB015527AA27880F991FAA1F8C
S1130220A41710F0A41B83955051B9F7A05DAA330D
S113023008F0A95DA193009779F7B111B1931192D8
S1130240CB010C942301DC01FC01672F719177230E
S1130250E1F7329704C07C916D9370836291AE177D
S10D0260BF07C8F30895F894FFCF18
S113026A48656C6C6F20576F726C642100476F6F1E
S109027A646279652100B5
S9030000FC
